{
  "contractName": "Rental2",
  "abi": [
    {
      "inputs": [],
      "stateMutability": "nonpayable",
      "type": "constructor"
    },
    {
      "anonymous": false,
      "inputs": [
        {
          "indexed": false,
          "internalType": "address",
          "name": "inquilino",
          "type": "address"
        },
        {
          "indexed": false,
          "internalType": "address payable",
          "name": "propietario",
          "type": "address"
        },
        {
          "indexed": true,
          "internalType": "uint256",
          "name": "idContratoInm",
          "type": "uint256"
        },
        {
          "indexed": false,
          "internalType": "uint256",
          "name": "numeroDePago",
          "type": "uint256"
        },
        {
          "indexed": false,
          "internalType": "uint256",
          "name": "duracion",
          "type": "uint256"
        },
        {
          "indexed": false,
          "internalType": "uint256",
          "name": "idProp",
          "type": "uint256"
        }
      ],
      "name": "GeneracionDeContrato",
      "type": "event"
    },
    {
      "anonymous": false,
      "inputs": [
        {
          "indexed": false,
          "internalType": "address",
          "name": "inquilino",
          "type": "address"
        },
        {
          "indexed": true,
          "internalType": "uint256",
          "name": "idContratoInm",
          "type": "uint256"
        },
        {
          "indexed": false,
          "internalType": "uint256",
          "name": "numeroDePago",
          "type": "uint256"
        },
        {
          "indexed": false,
          "internalType": "bool",
          "name": "isValids",
          "type": "bool"
        }
      ],
      "name": "pagoRealizado",
      "type": "event"
    },
    {
      "inputs": [
        {
          "internalType": "uint256",
          "name": "",
          "type": "uint256"
        }
      ],
      "name": "Contratos",
      "outputs": [
        {
          "internalType": "uint256",
          "name": "_idContratoInm",
          "type": "uint256"
        },
        {
          "internalType": "address",
          "name": "_inquilino",
          "type": "address"
        },
        {
          "internalType": "address payable",
          "name": "_propietario",
          "type": "address"
        },
        {
          "internalType": "uint256",
          "name": "_idPropiedad",
          "type": "uint256"
        },
        {
          "internalType": "uint256",
          "name": "_montoDePago",
          "type": "uint256"
        },
        {
          "internalType": "uint256",
          "name": "_fechaInicio",
          "type": "uint256"
        },
        {
          "internalType": "uint256",
          "name": "_fechaFin",
          "type": "uint256"
        },
        {
          "internalType": "uint256",
          "name": "_diasPago",
          "type": "uint256"
        },
        {
          "internalType": "uint256",
          "name": "_cantidadPagos",
          "type": "uint256"
        },
        {
          "internalType": "uint256",
          "name": "_pagosEfectivos",
          "type": "uint256"
        },
        {
          "internalType": "bool",
          "name": "_isValid",
          "type": "bool"
        }
      ],
      "stateMutability": "view",
      "type": "function",
      "constant": true
    },
    {
      "inputs": [],
      "name": "idContratoInm",
      "outputs": [
        {
          "internalType": "uint256",
          "name": "",
          "type": "uint256"
        }
      ],
      "stateMutability": "view",
      "type": "function",
      "constant": true
    },
    {
      "inputs": [
        {
          "internalType": "address payable",
          "name": "propietario",
          "type": "address"
        },
        {
          "internalType": "uint256",
          "name": "idpropiedad",
          "type": "uint256"
        },
        {
          "internalType": "uint256",
          "name": "montoDePago",
          "type": "uint256"
        },
        {
          "internalType": "uint256",
          "name": "duracion",
          "type": "uint256"
        },
        {
          "internalType": "uint256",
          "name": "diaspago",
          "type": "uint256"
        },
        {
          "internalType": "uint256",
          "name": "cantidadPagos",
          "type": "uint256"
        }
      ],
      "name": "GenerateAlquiler",
      "outputs": [],
      "stateMutability": "payable",
      "type": "function",
      "payable": true
    },
    {
      "inputs": [
        {
          "internalType": "address",
          "name": "inquilino",
          "type": "address"
        },
        {
          "internalType": "address payable",
          "name": "propietario",
          "type": "address"
        },
        {
          "internalType": "uint256",
          "name": "idContratoInmo",
          "type": "uint256"
        },
        {
          "internalType": "uint256",
          "name": "montoDePago",
          "type": "uint256"
        }
      ],
      "name": "Pagoregular",
      "outputs": [],
      "stateMutability": "payable",
      "type": "function",
      "payable": true
    },
    {
      "inputs": [
        {
          "internalType": "address payable",
          "name": "propietario",
          "type": "address"
        }
      ],
      "name": "sendViaCall",
      "outputs": [],
      "stateMutability": "payable",
      "type": "function",
      "payable": true
    }
  ],
  "bytecode": "0x60806040526000805534801561001457600080fd5b5033600260006101000a81548173ffffffffffffffffffffffffffffffffffffffff021916908373ffffffffffffffffffffffffffffffffffffffff160217905550610983806100656000396000f3fe60806040526004361061004a5760003560e01c80632389eea71461004f578063608d600b146100c7578063830c29ae1461018a578063aa68f9e1146101ce578063b73e2c7c14610244575b600080fd5b6100c56004803603608081101561006557600080fd5b81019080803573ffffffffffffffffffffffffffffffffffffffff169060200190929190803573ffffffffffffffffffffffffffffffffffffffff169060200190929190803590602001909291908035906020019092919050505061026f565b005b3480156100d357600080fd5b50610100600480360360208110156100ea57600080fd5b8101908080359060200190929190505050610455565b604051808c81526020018b73ffffffffffffffffffffffffffffffffffffffff1681526020018a73ffffffffffffffffffffffffffffffffffffffff16815260200189815260200188815260200187815260200186815260200185815260200184815260200183815260200182151581526020019b50505050505050505050505060405180910390f35b6101cc600480360360208110156101a057600080fd5b81019080803573ffffffffffffffffffffffffffffffffffffffff1690602001909291905050506104fc565b005b610242600480360360c08110156101e457600080fd5b81019080803573ffffffffffffffffffffffffffffffffffffffff16906020019092919080359060200190929190803590602001909291908035906020019092919080359060200190929190803590602001909291905050506106fd565b005b34801561025057600080fd5b50610259610935565b6040518082815260200191505060405180910390f35b8373ffffffffffffffffffffffffffffffffffffffff166001600084815260200190815260200160002060010160009054906101000a900473ffffffffffffffffffffffffffffffffffffffff1673ffffffffffffffffffffffffffffffffffffffff1614801561034157508273ffffffffffffffffffffffffffffffffffffffff166001600084815260200190815260200160002060020160009054906101000a900473ffffffffffffffffffffffffffffffffffffffff1673ffffffffffffffffffffffffffffffffffffffff16145b80156103625750806001600084815260200190815260200160002060040154145b801561039557506001151560016000848152602001908152602001600020600a0160009054906101000a900460ff161515145b61039e57600080fd5b6001806000848152602001908152602001600020600901600082825401925050819055506103cb836104fc565b60017f9485f8b76f292bc57db860dc94da600e47c7baa0faa8ea5816cbcf6c8c905db3856001806000878152602001908152602001600020600a0160009054906101000a900460ff16604051808473ffffffffffffffffffffffffffffffffffffffff1681526020018381526020018215158152602001935050505060405180910390a250505050565b60016020528060005260406000206000915090508060000154908060010160009054906101000a900473ffffffffffffffffffffffffffffffffffffffff16908060020160009054906101000a900473ffffffffffffffffffffffffffffffffffffffff169080600301549080600401549080600501549080600601549080600701549080600801549080600901549080600a0160009054906101000a900460ff1690508b565b600060608273ffffffffffffffffffffffffffffffffffffffff166064606334028161052457fe5b0460405180600001905060006040518083038185875af1925050503d806000811461056b576040519150601f19603f3d011682016040523d82523d6000602084013e610570565b606091505b509150915060006060600260009054906101000a900473ffffffffffffffffffffffffffffffffffffffff1673ffffffffffffffffffffffffffffffffffffffff16606460013402816105bf57fe5b0460405180600001905060006040518083038185875af1925050503d8060008114610606576040519150601f19603f3d011682016040523d82523d6000602084013e61060b565b606091505b509150915083610683576040517f08c379a00000000000000000000000000000000000000000000000000000000081526004018080602001828103825260148152602001807f4661696c656420746f2073656e6420457468657200000000000000000000000081525060200191505060405180910390fd5b816106f6576040517f08c379a00000000000000000000000000000000000000000000000000000000081526004018080602001828103825260148152602001807f4661696c656420746f2073656e6420457468657200000000000000000000000081525060200191505060405180910390fd5b5050505050565b61070561093b565b60405180610160016040528060005481526020013373ffffffffffffffffffffffffffffffffffffffff1681526020018773ffffffffffffffffffffffffffffffffffffffff1681526020018681526020018581526020014281526020018442018152602001838152602001828152602001600181526020016001151581525060016000805481526020019081526020016000206000820151816000015560208201518160010160006101000a81548173ffffffffffffffffffffffffffffffffffffffff021916908373ffffffffffffffffffffffffffffffffffffffff16021790555060408201518160020160006101000a81548173ffffffffffffffffffffffffffffffffffffffff021916908373ffffffffffffffffffffffffffffffffffffffff160217905550606082015181600301556080820151816004015560a0820151816005015560c0820151816006015560e082015181600701556101008201518160080155610120820151816009015561014082015181600a0160006101000a81548160ff0219169083151502179055509050506108a6866104fc565b6000547f676ff65e29578dc705e18799d12df5083b73b824d1e1eec4582cd4b046246ebe33886001878a604051808673ffffffffffffffffffffffffffffffffffffffff1681526020018573ffffffffffffffffffffffffffffffffffffffff1681526020018481526020018381526020018281526020019550505050505060405180910390a2505050505050565b60005481565b6001600080828254019250508190555056fea264697066735822122003189fe8c51bde7a39841d4071b8c01674f6882a4ab79ed417d196e2fff6f07c64736f6c634300060c0033",
  "immutableReferences": {},
  "source": "pragma solidity >=0.4.21 <0.7.0;\r\n\r\ncontract Rental2{\r\n    \r\n    uint256 public idContratoInm=0;\r\n    mapping (uint => ContratoInm) public Contratos;\r\n    address owner;\r\n    \r\n    event pagoRealizado(address inquilino, uint indexed idContratoInm , uint numeroDePago, bool isValids);\r\n    event GeneracionDeContrato(address inquilino,address payable propietario, uint indexed idContratoInm , uint numeroDePago, uint duracion, uint idProp );\r\n\r\n    \r\n    modifier onlyOwner(){\r\n        require(msg.sender ==owner);\r\n        _;\r\n    }\r\n    \r\n    \r\n    constructor() public{\r\n        owner=msg.sender;\r\n    }\r\n    \r\n     struct ContratoInm {\r\n        uint _idContratoInm;\r\n        address _inquilino;\r\n        address payable _propietario; \r\n        uint _idPropiedad;\r\n        uint _montoDePago;\r\n        uint _fechaInicio;\r\n        uint _fechaFin;\r\n        uint _diasPago;\r\n        uint _cantidadPagos;\r\n        uint _pagosEfectivos;\r\n        bool _isValid;\r\n    }\r\n    \r\n    //recibe ID de la prop, monto \r\n    //Falta validar que ese ID prop no exista en el mapping\r\n     function GenerateAlquiler (address payable propietario, uint idpropiedad, uint montoDePago, uint duracion, uint diaspago, uint cantidadPagos) payable public {\r\n        incrementCount();\r\n        Contratos[idContratoInm] = ContratoInm(idContratoInm,msg.sender,propietario,idpropiedad, montoDePago, now, now+duracion,diaspago, cantidadPagos,1, true);\r\n        sendViaCall(propietario);\r\n        emit GeneracionDeContrato(msg.sender, propietario, idContratoInm, 1, duracion,  idpropiedad);\r\n\r\n    }\r\n    \r\n      //recibe ID del contratoInm para buscarlo en el mapping, monto\r\n     function Pagoregular (address inquilino,address payable propietario, uint idContratoInmo, uint montoDePago) payable public {\r\n         \r\n        require(Contratos[idContratoInmo]._inquilino ==inquilino &&\r\n        Contratos[idContratoInmo]._propietario == propietario && \r\n        Contratos[idContratoInmo]._montoDePago==montoDePago&&\r\n        Contratos[idContratoInmo]._isValid ==true);\r\n        \r\n        Contratos[idContratoInmo]._pagosEfectivos+=1;\r\n        \r\n        sendViaCall(propietario);\r\n        \r\n        emit pagoRealizado(inquilino,1,1,Contratos[idContratoInmo]._isValid);    \r\n    }\r\n    \r\n    \r\n    //Chequear overflow de porcentajes. Envia un porcenje como fee al owner del contrato y el resto al propietario\r\n    function sendViaCall(address payable propietario) public payable {\r\n        (bool sent, bytes memory data) = propietario.call{value : (msg.value*99 /100) } (\"\");\r\n        (bool sentO, bytes memory dataO) = owner.call{value: msg.value*1 /100}(\"\");\r\n        require(sent, \"Failed to send Ether\");\r\n        require(sentO, \"Failed to send Ether\");\r\n\r\n    }\r\n    \r\n     function incrementCount() internal{\r\n        idContratoInm+=1;\r\n    }\r\n    \r\n    function decreseCount() internal{\r\n        idContratoInm-=1;\r\n    }\r\n    \r\n}",
  "sourcePath": "C:/Users/Facundo/Documents/GitHub/ReactContracts/contracts/Rental2.sol",
  "compiler": {
    "name": "solc",
    "version": "0.6.12+commit.27d51765.Emscripten.clang"
  },
  "schemaVersion": "3.3.4",
  "updatedAt": "2021-04-20T00:33:53.577Z",
  "networkType": "ethereum",
  "devdoc": {
    "kind": "dev",
    "methods": {},
    "version": 1
  },
  "userdoc": {
    "kind": "user",
    "methods": {},
    "version": 1
  }
}